{
  "contractName": "ImplementationV1",
  "abi": [
    {
      "anonymous": false,
      "inputs": [
        {
          "indexed": false,
          "internalType": "uint8",
          "name": "version",
          "type": "uint8"
        }
      ],
      "name": "Initialized",
      "type": "event"
    },
    {
      "inputs": [],
      "name": "x",
      "outputs": [
        {
          "internalType": "uint256",
          "name": "",
          "type": "uint256"
        }
      ],
      "stateMutability": "view",
      "type": "function"
    },
    {
      "inputs": [],
      "name": "y",
      "outputs": [
        {
          "internalType": "uint256",
          "name": "",
          "type": "uint256"
        }
      ],
      "stateMutability": "view",
      "type": "function"
    },
    {
      "inputs": [
        {
          "internalType": "uint256",
          "name": "_x",
          "type": "uint256"
        },
        {
          "internalType": "uint256",
          "name": "_y",
          "type": "uint256"
        }
      ],
      "name": "initialize",
      "outputs": [],
      "stateMutability": "nonpayable",
      "type": "function"
    },
    {
      "inputs": [],
      "name": "mult",
      "outputs": [
        {
          "internalType": "uint256",
          "name": "",
          "type": "uint256"
        }
      ],
      "stateMutability": "view",
      "type": "function"
    }
  ],
  "bytecode": "0x608060405234801561001057600080fd5b5061050d806100206000396000f3fe608060405234801561001057600080fd5b506004361061004c5760003560e01c80630c55699c14610051578063a56dfe4a1461006f578063e4a301161461008d578063e879a13e146100a9575b600080fd5b6100596100c7565b60405161006691906102b2565b60405180910390f35b6100776100cd565b60405161008491906102b2565b60405180910390f35b6100a760048036038101906100a291906102fe565b6100d3565b005b6100b161016f565b6040516100be91906102b2565b60405180910390f35b60015481565b60025481565b60006100df6001610186565b90508015610103576001600060016101000a81548160ff0219169083151502179055505b8260018190555081600281905550801561016a5760008060016101000a81548160ff0219169083151502179055507f7f26b83ff96e1f2b6a682f133852f6798a09c465da95921460cefb384740249860016040516101619190610390565b60405180910390a15b505050565b600060025460015461018191906103da565b905090565b60008060019054906101000a900460ff16156101fd5760018260ff161480156101b557506101b330610276565b155b6101f4576040517f08c379a00000000000000000000000000000000000000000000000000000000081526004016101eb906104b7565b60405180910390fd5b60009050610271565b8160ff1660008054906101000a900460ff1660ff1610610252576040517f08c379a0000000000000000000000000000000000000000000000000000000008152600401610249906104b7565b60405180910390fd5b816000806101000a81548160ff021916908360ff160217905550600190505b919050565b6000808273ffffffffffffffffffffffffffffffffffffffff163b119050919050565b6000819050919050565b6102ac81610299565b82525050565b60006020820190506102c760008301846102a3565b92915050565b600080fd5b6102db81610299565b81146102e657600080fd5b50565b6000813590506102f8816102d2565b92915050565b60008060408385031215610315576103146102cd565b5b6000610323858286016102e9565b9250506020610334858286016102e9565b9150509250929050565b6000819050919050565b600060ff82169050919050565b6000819050919050565b600061037a6103756103708461033e565b610355565b610348565b9050919050565b61038a8161035f565b82525050565b60006020820190506103a56000830184610381565b92915050565b7f4e487b7100000000000000000000000000000000000000000000000000000000600052601160045260246000fd5b60006103e582610299565b91506103f083610299565b9250817fffffffffffffffffffffffffffffffffffffffffffffffffffffffffffffffff0483118215151615610429576104286103ab565b5b828202905092915050565b600082825260208201905092915050565b7f496e697469616c697a61626c653a20636f6e747261637420697320616c72656160008201527f647920696e697469616c697a6564000000000000000000000000000000000000602082015250565b60006104a1602e83610434565b91506104ac82610445565b604082019050919050565b600060208201905081810360008301526104d081610494565b905091905056fea26469706673582212204a96bab855de0d9a5168abb122c82526696eace821b511c0f301d4e1ecf5f8a064736f6c63430008090033",
  "immutableReferences": {},
  "source": "// SPDX-License-Identifier: Unlicense\npragma solidity ^0.8.0;\n\nimport \"@openzeppelin/contracts-upgradeable/proxy/utils/Initializable.sol\";\n\ncontract ImplementationV1 is Initializable {\n  // these state variables and their values\n  // will be preserved forever, regardless of upgrading\n  uint public x;\n  uint public y;\n\n  function initialize(uint _x, uint _y) public initializer {\n    x = _x;\n    y = _y;\n  }\n  \n  function mult() public view returns(uint) {\n    return x * y;\n  }\n}",
  "sourcePath": "/Users/julissadantes-castillo/Documents/my-upgradeable-contract/contracts/ImplementationV1.sol",
  "compiler": {
    "name": "solc",
    "version": "0.8.9+commit.e5eed63a.Emscripten.clang"
  },
  "schemaVersion": "3.4.10",
  "updatedAt": "2022-10-27T19:55:38.510Z",
  "devdoc": {
    "kind": "dev",
    "methods": {},
    "version": 1
  },
  "userdoc": {
    "kind": "user",
    "methods": {},
    "version": 1
  }
}