{
  "contractName": "ImplementationV2",
  "abi": [
    {
      "anonymous": false,
      "inputs": [
        {
          "indexed": false,
          "internalType": "uint8",
          "name": "version",
          "type": "uint8"
        }
      ],
      "name": "Initialized",
      "type": "event"
    },
    {
      "inputs": [],
      "name": "y",
      "outputs": [
        {
          "internalType": "uint256",
          "name": "",
          "type": "uint256"
        }
      ],
      "stateMutability": "view",
      "type": "function"
    },
    {
      "inputs": [
        {
          "internalType": "uint256",
          "name": "_x",
          "type": "uint256"
        },
        {
          "internalType": "uint256",
          "name": "_y",
          "type": "uint256"
        }
      ],
      "name": "initialize",
      "outputs": [],
      "stateMutability": "nonpayable",
      "type": "function"
    },
    {
      "inputs": [],
      "name": "mult",
      "outputs": [
        {
          "internalType": "uint256",
          "name": "",
          "type": "uint256"
        }
      ],
      "stateMutability": "view",
      "type": "function"
    },
    {
      "inputs": [],
      "name": "newFunction",
      "outputs": [
        {
          "internalType": "uint256",
          "name": "",
          "type": "uint256"
        }
      ],
      "stateMutability": "view",
      "type": "function"
    }
  ],
  "bytecode": "0x608060405234801561001057600080fd5b50610574806100206000396000f3fe608060405234801561001057600080fd5b506004361061004c5760003560e01c80631b28d63e14610051578063a56dfe4a1461006f578063e4a301161461008d578063e879a13e146100a9575b600080fd5b6100596100c7565b60405161006691906102c3565b60405180910390f35b6100776100de565b60405161008491906102c3565b60405180910390f35b6100a760048036038101906100a2919061030f565b6100e4565b005b6100b1610180565b6040516100be91906102c3565b60405180910390f35b60006002546001546100d9919061037e565b905090565b60025481565b60006100f06001610197565b90508015610114576001600060016101000a81548160ff0219169083151502179055505b8260018190555081600281905550801561017b5760008060016101000a81548160ff0219169083151502179055507f7f26b83ff96e1f2b6a682f133852f6798a09c465da95921460cefb384740249860016040516101729190610426565b60405180910390a15b505050565b60006002546001546101929190610441565b905090565b60008060019054906101000a900460ff161561020e5760018260ff161480156101c657506101c430610287565b155b610205576040517f08c379a00000000000000000000000000000000000000000000000000000000081526004016101fc9061051e565b60405180910390fd5b60009050610282565b8160ff1660008054906101000a900460ff1660ff1610610263576040517f08c379a000000000000000000000000000000000000000000000000000000000815260040161025a9061051e565b60405180910390fd5b816000806101000a81548160ff021916908360ff160217905550600190505b919050565b6000808273ffffffffffffffffffffffffffffffffffffffff163b119050919050565b6000819050919050565b6102bd816102aa565b82525050565b60006020820190506102d860008301846102b4565b92915050565b600080fd5b6102ec816102aa565b81146102f757600080fd5b50565b600081359050610309816102e3565b92915050565b60008060408385031215610326576103256102de565b5b6000610334858286016102fa565b9250506020610345858286016102fa565b9150509250929050565b7f4e487b7100000000000000000000000000000000000000000000000000000000600052601160045260246000fd5b6000610389826102aa565b9150610394836102aa565b9250827fffffffffffffffffffffffffffffffffffffffffffffffffffffffffffffffff038211156103c9576103c861034f565b5b828201905092915050565b6000819050919050565b600060ff82169050919050565b6000819050919050565b600061041061040b610406846103d4565b6103eb565b6103de565b9050919050565b610420816103f5565b82525050565b600060208201905061043b6000830184610417565b92915050565b600061044c826102aa565b9150610457836102aa565b9250817fffffffffffffffffffffffffffffffffffffffffffffffffffffffffffffffff04831182151516156104905761048f61034f565b5b828202905092915050565b600082825260208201905092915050565b7f496e697469616c697a61626c653a20636f6e747261637420697320616c72656160008201527f647920696e697469616c697a6564000000000000000000000000000000000000602082015250565b6000610508602e8361049b565b9150610513826104ac565b604082019050919050565b60006020820190508181036000830152610537816104fb565b905091905056fea26469706673582212206dd38dce67b94fdd1c28ec77acf9473e5e828cf0efedc86cac47e19caa9daa1f64736f6c63430008090033",
  "immutableReferences": {},
  "source": "// SPDX-License-Identifier: Unlicense\npragma solidity ^0.8.0;\n\nimport \"@openzeppelin/contracts-upgradeable/proxy/utils/Initializable.sol\";\n\ncontract ImplementationV2 is Initializable {\n  // these state variables and their values\n  // will be preserved forever, regardless of upgrading\n  uint x;\n  uint public y;\n\n  function initialize(uint _x, uint _y) public initializer {\n    x = _x;\n    y = _y;\n  }\n  \n  function mult() public view returns(uint) {\n    return x * y;\n  }\n\n  function newFunction() public view returns(uint) {\n    return x + y;\n  }\n}",
  "sourcePath": "/Users/julissadantes-castillo/Documents/my-upgradeable-contract/contracts/ImplementationV2.sol",
  "compiler": {
    "name": "solc",
    "version": "0.8.9+commit.e5eed63a.Emscripten.clang"
  },
  "schemaVersion": "3.4.10",
  "updatedAt": "2022-10-27T19:55:38.510Z",
  "devdoc": {
    "kind": "dev",
    "methods": {},
    "version": 1
  },
  "userdoc": {
    "kind": "user",
    "methods": {},
    "version": 1
  }
}