{
  "contractName": "ImplementationV4",
  "abi": [
    {
      "anonymous": false,
      "inputs": [
        {
          "indexed": false,
          "internalType": "uint8",
          "name": "version",
          "type": "uint8"
        }
      ],
      "name": "Initialized",
      "type": "event"
    },
    {
      "inputs": [],
      "name": "juli",
      "outputs": [
        {
          "internalType": "uint8",
          "name": "status",
          "type": "uint8"
        },
        {
          "internalType": "uint16",
          "name": "newVal",
          "type": "uint16"
        },
        {
          "internalType": "string",
          "name": "mood",
          "type": "string"
        }
      ],
      "stateMutability": "view",
      "type": "function"
    },
    {
      "inputs": [],
      "name": "mystruct",
      "outputs": [
        {
          "internalType": "uint16",
          "name": "val1",
          "type": "uint16"
        },
        {
          "internalType": "uint16",
          "name": "val2",
          "type": "uint16"
        },
        {
          "internalType": "uint64",
          "name": "val3",
          "type": "uint64"
        },
        {
          "internalType": "uint160",
          "name": "val4",
          "type": "uint160"
        },
        {
          "internalType": "string",
          "name": "name",
          "type": "string"
        }
      ],
      "stateMutability": "view",
      "type": "function"
    },
    {
      "inputs": [],
      "name": "y",
      "outputs": [
        {
          "internalType": "uint256",
          "name": "",
          "type": "uint256"
        }
      ],
      "stateMutability": "view",
      "type": "function"
    },
    {
      "inputs": [
        {
          "internalType": "uint256",
          "name": "_x",
          "type": "uint256"
        },
        {
          "internalType": "uint256",
          "name": "_y",
          "type": "uint256"
        }
      ],
      "name": "initialize",
      "outputs": [],
      "stateMutability": "nonpayable",
      "type": "function"
    },
    {
      "inputs": [],
      "name": "mult",
      "outputs": [
        {
          "internalType": "uint256",
          "name": "",
          "type": "uint256"
        }
      ],
      "stateMutability": "view",
      "type": "function"
    },
    {
      "inputs": [],
      "name": "newFunction",
      "outputs": [
        {
          "internalType": "uint256",
          "name": "",
          "type": "uint256"
        }
      ],
      "stateMutability": "view",
      "type": "function"
    },
    {
      "inputs": [],
      "name": "getJuli",
      "outputs": [
        {
          "internalType": "uint8",
          "name": "",
          "type": "uint8"
        },
        {
          "internalType": "string",
          "name": "",
          "type": "string"
        }
      ],
      "stateMutability": "view",
      "type": "function"
    },
    {
      "inputs": [
        {
          "internalType": "uint8",
          "name": "status",
          "type": "uint8"
        },
        {
          "internalType": "uint16",
          "name": "newVal",
          "type": "uint16"
        },
        {
          "internalType": "string",
          "name": "mood",
          "type": "string"
        }
      ],
      "name": "changeJuli",
      "outputs": [],
      "stateMutability": "nonpayable",
      "type": "function"
    }
  ],
  "bytecode": "0x608060405234801561001057600080fd5b50610ebd806100206000396000f3fe608060405234801561001057600080fd5b50600436106100885760003560e01c8063a56dfe4a1161005b578063a56dfe4a14610108578063e4a3011614610126578063e879a13e14610142578063f4d0df1a1461016057610088565b80631b28d63e1461008d57806321cac573146100ab57806333b10a4a146100cd5780637d41dc28146100ec575b600080fd5b610095610180565b6040516100a291906107d2565b60405180910390f35b6100b3610197565b6040516100c49594939291906108f5565b60405180910390f35b6100d5610293565b6040516100e392919061096b565b60405180910390f35b61010660048036038101906101019190610b3c565b610343565b005b6101106103d0565b60405161011d91906107d2565b60405180910390f35b610140600480360381019061013b9190610bd7565b6103d6565b005b61014a610531565b60405161015791906107d2565b60405180910390f35b610168610548565b60405161017793929190610c17565b60405180910390f35b60006002546001546101929190610c84565b905090565b60058060000160009054906101000a900461ffff16908060000160029054906101000a900461ffff16908060000160049054906101000a900467ffffffffffffffff169080600001600c9054906101000a900473ffffffffffffffffffffffffffffffffffffffff169080600101805461021090610d09565b80601f016020809104026020016040519081016040528092919081815260200182805461023c90610d09565b80156102895780601f1061025e57610100808354040283529160200191610289565b820191906000526020600020905b81548152906001019060200180831161026c57829003601f168201915b5050505050905085565b60006060600360000160009054906101000a900460ff1660036001018080546102bb90610d09565b80601f01602080910402602001604051908101604052809291908181526020018280546102e790610d09565b80156103345780601f1061030957610100808354040283529160200191610334565b820191906000526020600020905b81548152906001019060200180831161031757829003601f168201915b50505050509050915091509091565b60405180606001604052808460ff1681526020018361ffff16815260200182815250600360008201518160000160006101000a81548160ff021916908360ff16021790555060208201518160000160016101000a81548161ffff021916908361ffff16021790555060408201518160010190805190602001906103c7929190610716565b50905050505050565b60025481565b60006103e26001610603565b90508015610406576001600060016101000a81548160ff0219169083151502179055505b6040518060600160405280600060ff168152602001600261ffff1681526020016040518060400160405280600381526020017f66756e0000000000000000000000000000000000000000000000000000000000815250815250600360008201518160000160006101000a81548160ff021916908360ff16021790555060208201518160000160016101000a81548161ffff021916908361ffff16021790555060408201518160010190805190602001906104c1929190610716565b509050508260018190555081600281905550801561052c5760008060016101000a81548160ff0219169083151502179055507f7f26b83ff96e1f2b6a682f133852f6798a09c465da95921460cefb384740249860016040516105239190610d80565b60405180910390a15b505050565b60006002546001546105439190610d9b565b905090565b60038060000160009054906101000a900460ff16908060000160019054906101000a900461ffff169080600101805461058090610d09565b80601f01602080910402602001604051908101604052809291908181526020018280546105ac90610d09565b80156105f95780601f106105ce576101008083540402835291602001916105f9565b820191906000526020600020905b8154815290600101906020018083116105dc57829003601f168201915b5050505050905083565b60008060019054906101000a900460ff161561067a5760018260ff161480156106325750610630306106f3565b155b610671576040517f08c379a000000000000000000000000000000000000000000000000000000000815260040161066890610e67565b60405180910390fd5b600090506106ee565b8160ff1660008054906101000a900460ff1660ff16106106cf576040517f08c379a00000000000000000000000000000000000000000000000000000000081526004016106c690610e67565b60405180910390fd5b816000806101000a81548160ff021916908360ff160217905550600190505b919050565b6000808273ffffffffffffffffffffffffffffffffffffffff163b119050919050565b82805461072290610d09565b90600052602060002090601f016020900481019282610744576000855561078b565b82601f1061075d57805160ff191683800117855561078b565b8280016001018555821561078b579182015b8281111561078a57825182559160200191906001019061076f565b5b509050610798919061079c565b5090565b5b808211156107b557600081600090555060010161079d565b5090565b6000819050919050565b6107cc816107b9565b82525050565b60006020820190506107e760008301846107c3565b92915050565b600061ffff82169050919050565b610804816107ed565b82525050565b600067ffffffffffffffff82169050919050565b6108278161080a565b82525050565b600073ffffffffffffffffffffffffffffffffffffffff82169050919050565b6108568161082d565b82525050565b600081519050919050565b600082825260208201905092915050565b60005b8381101561089657808201518184015260208101905061087b565b838111156108a5576000848401525b50505050565b6000601f19601f8301169050919050565b60006108c78261085c565b6108d18185610867565b93506108e1818560208601610878565b6108ea816108ab565b840191505092915050565b600060a08201905061090a60008301886107fb565b61091760208301876107fb565b610924604083018661081e565b610931606083018561084d565b818103608083015261094381846108bc565b90509695505050505050565b600060ff82169050919050565b6109658161094f565b82525050565b6000604082019050610980600083018561095c565b818103602083015261099281846108bc565b90509392505050565b6000604051905090565b600080fd5b600080fd5b6109b88161094f565b81146109c357600080fd5b50565b6000813590506109d5816109af565b92915050565b6109e4816107ed565b81146109ef57600080fd5b50565b600081359050610a01816109db565b92915050565b600080fd5b600080fd5b7f4e487b7100000000000000000000000000000000000000000000000000000000600052604160045260246000fd5b610a49826108ab565b810181811067ffffffffffffffff82111715610a6857610a67610a11565b5b80604052505050565b6000610a7b61099b565b9050610a878282610a40565b919050565b600067ffffffffffffffff821115610aa757610aa6610a11565b5b610ab0826108ab565b9050602081019050919050565b82818337600083830152505050565b6000610adf610ada84610a8c565b610a71565b905082815260208101848484011115610afb57610afa610a0c565b5b610b06848285610abd565b509392505050565b600082601f830112610b2357610b22610a07565b5b8135610b33848260208601610acc565b91505092915050565b600080600060608486031215610b5557610b546109a5565b5b6000610b63868287016109c6565b9350506020610b74868287016109f2565b925050604084013567ffffffffffffffff811115610b9557610b946109aa565b5b610ba186828701610b0e565b9150509250925092565b610bb4816107b9565b8114610bbf57600080fd5b50565b600081359050610bd181610bab565b92915050565b60008060408385031215610bee57610bed6109a5565b5b6000610bfc85828601610bc2565b9250506020610c0d85828601610bc2565b9150509250929050565b6000606082019050610c2c600083018661095c565b610c3960208301856107fb565b8181036040830152610c4b81846108bc565b9050949350505050565b7f4e487b7100000000000000000000000000000000000000000000000000000000600052601160045260246000fd5b6000610c8f826107b9565b9150610c9a836107b9565b9250827fffffffffffffffffffffffffffffffffffffffffffffffffffffffffffffffff03821115610ccf57610cce610c55565b5b828201905092915050565b7f4e487b7100000000000000000000000000000000000000000000000000000000600052602260045260246000fd5b60006002820490506001821680610d2157607f821691505b60208210811415610d3557610d34610cda565b5b50919050565b6000819050919050565b6000819050919050565b6000610d6a610d65610d6084610d3b565b610d45565b61094f565b9050919050565b610d7a81610d4f565b82525050565b6000602082019050610d956000830184610d71565b92915050565b6000610da6826107b9565b9150610db1836107b9565b9250817fffffffffffffffffffffffffffffffffffffffffffffffffffffffffffffffff0483118215151615610dea57610de9610c55565b5b828202905092915050565b7f496e697469616c697a61626c653a20636f6e747261637420697320616c72656160008201527f647920696e697469616c697a6564000000000000000000000000000000000000602082015250565b6000610e51602e83610867565b9150610e5c82610df5565b604082019050919050565b60006020820190508181036000830152610e8081610e44565b905091905056fea26469706673582212206668d3aa7924542ef6bdddce0b5057f22e06679858d8af3df73bf395bfd5021064736f6c63430008090033",
  "immutableReferences": {},
  "source": "// SPDX-License-Identifier: Unlicense\npragma solidity ^0.8.0;\n\nimport \"@openzeppelin/contracts-upgradeable/proxy/utils/Initializable.sol\";\n\ncontract ImplementationV4 is Initializable {\n  // these state variables and their values\n  // will be preserved forever, regardless of upgrading\n  uint x;\n  uint public y;\n\n  struct Juli {\n    uint8 status;\n    uint16 newVal;//Trying to check the storage of gap\n    string mood;\n  }\n\n  struct MyStruct {\n        uint16 val1;\n        uint16 val2;\n        uint64 val3;\n        uint160 val4;\n        string name;\n  }\n\n  Juli public juli;\n  MyStruct public mystruct;\n\n  struct SafeBox {\n        bool done;\n        function(uint, bytes12) internal callback;\n        bytes12 hash;\n        uint value;\n  }\n  SafeBox box;\n  function initialize(uint _x, uint _y) public initializer {\n    juli = Juli(0, 2, \"fun\");\n    x = _x;\n    y = _y;\n  }\n  \n  function mult() public view returns(uint) {\n    return x * y;\n  }\n\n  function newFunction() public view returns(uint) {\n    return x + y;\n  }\n\n  function getJuli() public view returns (uint8, string memory) {\n    return (juli.status, juli.mood);\n  }\n\n  function changeJuli(uint8 status, uint16 newVal, string memory mood) public {\n    juli = Juli(status, newVal, mood);\n  }\n}",
  "sourcePath": "/Users/julissadantes-castillo/Documents/my-upgradeable-contract/contracts/ImplementationV4.sol",
  "compiler": {
    "name": "solc",
    "version": "0.8.9+commit.e5eed63a.Emscripten.clang"
  },
  "schemaVersion": "3.4.10",
  "updatedAt": "2022-10-27T19:55:38.512Z",
  "devdoc": {
    "kind": "dev",
    "methods": {},
    "version": 1
  },
  "userdoc": {
    "kind": "user",
    "methods": {},
    "version": 1
  }
}