{
  "contractName": "ImplementationV3",
  "abi": [
    {
      "anonymous": false,
      "inputs": [
        {
          "indexed": false,
          "internalType": "uint8",
          "name": "version",
          "type": "uint8"
        }
      ],
      "name": "Initialized",
      "type": "event"
    },
    {
      "inputs": [],
      "name": "juli",
      "outputs": [
        {
          "internalType": "uint8",
          "name": "status",
          "type": "uint8"
        },
        {
          "internalType": "string",
          "name": "mood",
          "type": "string"
        }
      ],
      "stateMutability": "view",
      "type": "function"
    },
    {
      "inputs": [],
      "name": "mystruct",
      "outputs": [
        {
          "internalType": "uint16",
          "name": "val1",
          "type": "uint16"
        },
        {
          "internalType": "uint16",
          "name": "val2",
          "type": "uint16"
        },
        {
          "internalType": "uint64",
          "name": "val3",
          "type": "uint64"
        },
        {
          "internalType": "string",
          "name": "name",
          "type": "string"
        }
      ],
      "stateMutability": "view",
      "type": "function"
    },
    {
      "inputs": [],
      "name": "y",
      "outputs": [
        {
          "internalType": "uint256",
          "name": "",
          "type": "uint256"
        }
      ],
      "stateMutability": "view",
      "type": "function"
    },
    {
      "inputs": [
        {
          "internalType": "uint256",
          "name": "_x",
          "type": "uint256"
        },
        {
          "internalType": "uint256",
          "name": "_y",
          "type": "uint256"
        }
      ],
      "name": "initialize",
      "outputs": [],
      "stateMutability": "nonpayable",
      "type": "function"
    },
    {
      "inputs": [],
      "name": "mult",
      "outputs": [
        {
          "internalType": "uint256",
          "name": "",
          "type": "uint256"
        }
      ],
      "stateMutability": "view",
      "type": "function"
    },
    {
      "inputs": [],
      "name": "newFunction",
      "outputs": [
        {
          "internalType": "uint256",
          "name": "",
          "type": "uint256"
        }
      ],
      "stateMutability": "view",
      "type": "function"
    },
    {
      "inputs": [],
      "name": "getJuli",
      "outputs": [
        {
          "internalType": "uint8",
          "name": "",
          "type": "uint8"
        },
        {
          "internalType": "string",
          "name": "",
          "type": "string"
        }
      ],
      "stateMutability": "view",
      "type": "function"
    }
  ],
  "bytecode": "0x608060405234801561001057600080fd5b50610b19806100206000396000f3fe608060405234801561001057600080fd5b506004361061007d5760003560e01c8063a56dfe4a1161005b578063a56dfe4a146100e0578063e4a30116146100fe578063e879a13e1461011a578063f4d0df1a146101385761007d565b80631b28d63e1461008257806321cac573146100a057806333b10a4a146100c1575b600080fd5b61008a610157565b60405161009791906106b4565b60405180910390f35b6100a861016e565b6040516100b894939291906107a8565b60405180910390f35b6100c9610244565b6040516100d7929190610810565b60405180910390f35b6100e86102f4565b6040516100f591906106b4565b60405180910390f35b61011860048036038101906101139190610871565b6102fa565b005b610122610427565b60405161012f91906106b4565b60405180910390f35b61014061043e565b60405161014e929190610810565b60405180910390f35b600060025460015461016991906108e0565b905090565b60058060000160009054906101000a900461ffff16908060000160029054906101000a900461ffff16908060000160049054906101000a900467ffffffffffffffff16908060010180546101c190610965565b80601f01602080910402602001604051908101604052809291908181526020018280546101ed90610965565b801561023a5780601f1061020f5761010080835404028352916020019161023a565b820191906000526020600020905b81548152906001019060200180831161021d57829003601f168201915b5050505050905084565b60006060600360000160009054906101000a900460ff16600360010180805461026c90610965565b80601f016020809104026020016040519081016040528092919081815260200182805461029890610965565b80156102e55780601f106102ba576101008083540402835291602001916102e5565b820191906000526020600020905b8154815290600101906020018083116102c857829003601f168201915b50505050509050915091509091565b60025481565b600061030660016104e5565b9050801561032a576001600060016101000a81548160ff0219169083151502179055505b6040518060400160405280600060ff1681526020016040518060400160405280600381526020017f66756e0000000000000000000000000000000000000000000000000000000000815250815250600360008201518160000160006101000a81548160ff021916908360ff16021790555060208201518160010190805190602001906103b79291906105f8565b50905050826001819055508160028190555080156104225760008060016101000a81548160ff0219169083151502179055507f7f26b83ff96e1f2b6a682f133852f6798a09c465da95921460cefb3847402498600160405161041991906109dc565b60405180910390a15b505050565b600060025460015461043991906109f7565b905090565b60038060000160009054906101000a900460ff169080600101805461046290610965565b80601f016020809104026020016040519081016040528092919081815260200182805461048e90610965565b80156104db5780601f106104b0576101008083540402835291602001916104db565b820191906000526020600020905b8154815290600101906020018083116104be57829003601f168201915b5050505050905082565b60008060019054906101000a900460ff161561055c5760018260ff161480156105145750610512306105d5565b155b610553576040517f08c379a000000000000000000000000000000000000000000000000000000000815260040161054a90610ac3565b60405180910390fd5b600090506105d0565b8160ff1660008054906101000a900460ff1660ff16106105b1576040517f08c379a00000000000000000000000000000000000000000000000000000000081526004016105a890610ac3565b60405180910390fd5b816000806101000a81548160ff021916908360ff160217905550600190505b919050565b6000808273ffffffffffffffffffffffffffffffffffffffff163b119050919050565b82805461060490610965565b90600052602060002090601f016020900481019282610626576000855561066d565b82601f1061063f57805160ff191683800117855561066d565b8280016001018555821561066d579182015b8281111561066c578251825591602001919060010190610651565b5b50905061067a919061067e565b5090565b5b8082111561069757600081600090555060010161067f565b5090565b6000819050919050565b6106ae8161069b565b82525050565b60006020820190506106c960008301846106a5565b92915050565b600061ffff82169050919050565b6106e6816106cf565b82525050565b600067ffffffffffffffff82169050919050565b610709816106ec565b82525050565b600081519050919050565b600082825260208201905092915050565b60005b8381101561074957808201518184015260208101905061072e565b83811115610758576000848401525b50505050565b6000601f19601f8301169050919050565b600061077a8261070f565b610784818561071a565b935061079481856020860161072b565b61079d8161075e565b840191505092915050565b60006080820190506107bd60008301876106dd565b6107ca60208301866106dd565b6107d76040830185610700565b81810360608301526107e9818461076f565b905095945050505050565b600060ff82169050919050565b61080a816107f4565b82525050565b60006040820190506108256000830185610801565b8181036020830152610837818461076f565b90509392505050565b600080fd5b61084e8161069b565b811461085957600080fd5b50565b60008135905061086b81610845565b92915050565b6000806040838503121561088857610887610840565b5b60006108968582860161085c565b92505060206108a78582860161085c565b9150509250929050565b7f4e487b7100000000000000000000000000000000000000000000000000000000600052601160045260246000fd5b60006108eb8261069b565b91506108f68361069b565b9250827fffffffffffffffffffffffffffffffffffffffffffffffffffffffffffffffff0382111561092b5761092a6108b1565b5b828201905092915050565b7f4e487b7100000000000000000000000000000000000000000000000000000000600052602260045260246000fd5b6000600282049050600182168061097d57607f821691505b6020821081141561099157610990610936565b5b50919050565b6000819050919050565b6000819050919050565b60006109c66109c16109bc84610997565b6109a1565b6107f4565b9050919050565b6109d6816109ab565b82525050565b60006020820190506109f160008301846109cd565b92915050565b6000610a028261069b565b9150610a0d8361069b565b9250817fffffffffffffffffffffffffffffffffffffffffffffffffffffffffffffffff0483118215151615610a4657610a456108b1565b5b828202905092915050565b7f496e697469616c697a61626c653a20636f6e747261637420697320616c72656160008201527f647920696e697469616c697a6564000000000000000000000000000000000000602082015250565b6000610aad602e8361071a565b9150610ab882610a51565b604082019050919050565b60006020820190508181036000830152610adc81610aa0565b905091905056fea264697066735822122032916f36a122ef99a8b75a97642d77a17e0a759de385b9a2c22df94eff71a32464736f6c63430008090033",
  "immutableReferences": {},
  "source": "// SPDX-License-Identifier: Unlicense\npragma solidity ^0.8.0;\n\nimport \"@openzeppelin/contracts-upgradeable/proxy/utils/Initializable.sol\";\n\ncontract ImplementationV3 is Initializable {\n  // these state variables and their values\n  // will be preserved forever, regardless of upgrading\n  uint x;\n  uint public y;\n\n  struct Juli {\n    uint8 status;\n    string mood;\n  }\n\n  struct MyStruct {\n        uint16 val1;\n        uint16 val2;\n        uint64 val3;\n        // Technically there is a 160bits gap here\n        string name;\n  }\n\n  Juli public juli;\n  MyStruct public mystruct;\n  function initialize(uint _x, uint _y) public initializer {\n    juli = Juli(0, \"fun\");\n    x = _x;\n    y = _y;\n  }\n  \n  function mult() public view returns(uint) {\n    return x * y;\n  }\n\n  function newFunction() public view returns(uint) {\n    return x + y;\n  }\n\n  function getJuli() public view returns (uint8, string memory) {\n    return (juli.status, juli.mood);\n  }\n}",
  "sourcePath": "/Users/julissadantes-castillo/Documents/my-upgradeable-contract/contracts/ImplementationV3.sol",
  "compiler": {
    "name": "solc",
    "version": "0.8.9+commit.e5eed63a.Emscripten.clang"
  },
  "schemaVersion": "3.4.10",
  "updatedAt": "2022-10-27T19:55:38.511Z",
  "devdoc": {
    "kind": "dev",
    "methods": {},
    "version": 1
  },
  "userdoc": {
    "kind": "user",
    "methods": {},
    "version": 1
  }
}