{
  "contractName": "TBox2",
  "abi": [
    {
      "anonymous": false,
      "inputs": [
        {
          "indexed": false,
          "internalType": "uint256",
          "name": "newValue",
          "type": "uint256"
        }
      ],
      "name": "ValueChanged",
      "type": "event"
    },
    {
      "inputs": [
        {
          "internalType": "TBox2.MyUserValueType",
          "name": "v",
          "type": "uint128"
        }
      ],
      "name": "foo",
      "outputs": [],
      "stateMutability": "nonpayable",
      "type": "function"
    },
    {
      "inputs": [
        {
          "internalType": "uint256",
          "name": "newValue",
          "type": "uint256"
        }
      ],
      "name": "store",
      "outputs": [],
      "stateMutability": "nonpayable",
      "type": "function"
    },
    {
      "inputs": [],
      "name": "retrieve",
      "outputs": [
        {
          "internalType": "uint256",
          "name": "",
          "type": "uint256"
        }
      ],
      "stateMutability": "view",
      "type": "function"
    }
  ],
  "bytecode": "0x608060405234801561001057600080fd5b5061025f806100206000396000f3fe608060405234801561001057600080fd5b50600436106100415760003560e01c80632e64cec1146100465780636057361d14610064578063c56cb6b014610080575b600080fd5b61004e61009c565b60405161005b919061013b565b60405180910390f35b61007e60048036038101906100799190610187565b6100a5565b005b61009a600480360381019061009591906101fc565b6100e6565b005b60008054905090565b806000819055507f93fe6d397c74fdf1402a8b72e47b68512f0510d7b98a4bc4cbdf6ac7108b3c59816040516100db919061013b565b60405180910390a150565b80600160006101000a8154816fffffffffffffffffffffffffffffffff02191690836fffffffffffffffffffffffffffffffff16021790555050565b6000819050919050565b61013581610122565b82525050565b6000602082019050610150600083018461012c565b92915050565b600080fd5b61016481610122565b811461016f57600080fd5b50565b6000813590506101818161015b565b92915050565b60006020828403121561019d5761019c610156565b5b60006101ab84828501610172565b91505092915050565b60006fffffffffffffffffffffffffffffffff82169050919050565b6101d9816101b4565b81146101e457600080fd5b50565b6000813590506101f6816101d0565b92915050565b60006020828403121561021257610211610156565b5b6000610220848285016101e7565b9150509291505056fea26469706673582212207b083b6e678c7f66e7b589089449e92409c5bded2e63ab139efaf39523f7609b64736f6c63430008090033",
  "immutableReferences": {},
  "source": "// contracts/Box.sol\n// SPDX-License-Identifier: MIT\npragma solidity 0.8.9;\n \ncontract TBox2 {\n    uint256 private value;\n    type MyUserValueType is uint128;\n    MyUserValueType my_user_value;\n\n    uint x;\n    \n    // Emitted when the stored value changes\n    event ValueChanged(uint256 newValue);\n\n    function foo(MyUserValueType v) external {\n       my_user_value = v;\n    }\n \n    // Stores a new value in the contract\n    function store(uint256 newValue) public {\n        value = newValue;\n        emit ValueChanged(newValue);\n    }\n \n    // Reads the last stored value\n    function retrieve() public view returns (uint256) {\n        return value;\n    }\n}",
  "sourcePath": "/Users/julissadantes-castillo/Documents/my-upgradeable-contract/contracts/TBox2.sol",
  "compiler": {
    "name": "solc",
    "version": "0.8.9+commit.e5eed63a.Emscripten.clang"
  },
  "schemaVersion": "3.4.10",
  "updatedAt": "2022-10-27T20:06:34.769Z",
  "devdoc": {
    "kind": "dev",
    "methods": {},
    "version": 1
  },
  "userdoc": {
    "kind": "user",
    "methods": {},
    "version": 1
  }
}